:020000040800F2
:10000000000400205D4A010869AC0008DD3A0108DF
:10001000D54A0108D54A0108D54A01080000000068
:100020000000000000000000000000008DB100088A
:1000300089B100080000000085B10008F98E0008B1
:10004000D54A0108D54A0108D54A0108D54A010810
:10005000D54A0108D54A0108ADEA0008C1EA0008FE
:10006000BDEA0008B9EA0008B5EA0008D54A010867
:10007000D54A010811F600087DF90008D54A0108A3
:10008000D54A010829FA0008D54A0108D54A0108CD
:10009000D54A0108D54A0108D54A0108B1EA000845
:1000A00075F60008B1F60008D54A0108A1F6000867
:1000B00095F60008D54A010885F600088173000806
:1000C00089730008757300087D730008D54A01081C
:1000D000D54A0108C9FA00081DFA000871F900089C
:1000E000A9EA0008D54A010891B10008D54A0108DB
:1000F000D54A0108D54A0108D54A0108D54A010860
:10010000D54A0108D54A0108D54A0108D54A01084F
:10011000D54A0108D54A0108D54A0108D54A01083F
:10012000D54A0108D54A0108D54A0108D54A01082F
:10013000D54A0108D54A0108D54A0108D54A01081F
:10014000D54A0108D54A0108D54A01086DAC000816
:10015000D54A0108E5F80008D5FA0008D9F80008E2
:100160006973000871730008D54A0108D54A01086F
:10017000D54A0108D54A0108D54A0108D54A0108DF
:10018000D54A0108D54A01082DE9F04F2DED0E8B17
:1001900099B008F093FE42F20F73984204D819B058
:1001A000BDEC0E8BBDE8F08FDFF8AC8198F8003025
:1001B000082B00F2B8805D4A342101FB03239F6ABB
:1001C0005B4D5C4E5C4C08E008F078FE33682268BA
:1001D000FB1A18446432904206D2EB6811A8984783
:1001E0009DF84430002BEFD008F068FE534B9FED94
:1001F000547AD3ED007A534C534B2268534E20600F
:10020000F8EE677A801A67EE877AC3ED007A504B72
:10021000188030466B68984700284DD1DFF854911C
:10022000D9F800309F0714D44A4B00221A805A8014
:100230009A8098F8013094F880214749414E9A42BB
:1002400000F09C8001334B7019B0BDEC0E8BBDE803
:10025000F08F424B1B78002BE6D008F02FFED4F82D
:10026000CC30D4F8D0A03B4F3D4ADFF80CB1C4F8F5
:10027000CC00C31A08EE903AB91D5346924618783E
:10028000002800F0D78294F84021002A40F03485FD
:100290009A4693462B4F9FED330A07F1D40303EBA5
:1002A0000B010BF1240B0DF097F8BBF16C0F00F074
:1002B0001B859AF80000EDE722793146304609F0B7
:1002C00081FD6779E7B1A379002B40F087821A4B53
:1002D0001B68ABB14FF001094B4604F1080AB9465F
:1002E0001F4651469FED200A48460DF075F8676796
:1002F0000137042F0AF1240A124BF2D101229A711C
:100300001A4BB3F800E0BEF1000F40F029850F4909
:1003100017488F1D0B8830F9022B9B1A21F8023BDE
:100320008F42F7D17AE700274AE700BF580F002035
:10033000EC360020704800200C1B0020A036002066
:10034000BD3786357013002090360020C41A002077
:10035000841A00207848002001040020A8480020CA
:100360004414002000007A4400000000581C0020C3
:1003700034140020881A0020BC1A002001234B707E
:1003800008F09CFDD6F88411BB4ABC4BC6F884012A
:10039000401A1B685080BA4A07931F46B2F906B04C
:1003A0005B899B45C0F21782BBF5FA6F81F27C81B5
:1003B000F979C3EB0B0202FB01F2C3F5FA6392FB7E
:1003C000F3F3C3F164030293AE4EAF4B96F95E2193
:1003D0001B68AE48AE490068B6F89681DFF8F8A20F
:1003E0009FEDAC4ADFEDAC4A069052420C9203F00E
:1003F000807392B20A910D9204938C460020B7EE5E
:10040000005A9F4B33F91020C8EB020303F2F31795
:1004100040F2E6318F4200F26B84002BB8BF5B42A2
:10042000022801F0B086069F97F819711FB19F420C
:10043000B4BFDB1B0023049F002F00F06F840799DB
:10044000497807EE903A06EE901AB8EEE77AF8EEA1
:10045000666AC7EE047AC6EEA45A27EEA76A75EE5E
:10046000656A26EE276A66EEA77AE5EE867A27EEBB
:10047000877AFDEEC77A17EE903AACF800309DF817
:1004800008300AF80030424504DABCF800305B421C
:10049000ACF80030013003280CF1020CB1D1B6F8F1
:1004A00098018345C0F2E787BBF5FA6FD4BFC0EB74
:1004B0000B0BC0F5FA6B4FF47A7303FB0BF3DFF809
:1004C0001CE2B6F89A11754A07EE101AC0F5FA67E1
:1004D000B3FBF7F78EFB0731FB17C3EB61114B1C26
:1004E0006FF0630C32F9133032F911200CFB0171FB
:1004F0009B1A01FB03F38EFB031EDB17C3EB6E138A
:100500001A4412B207EE902AF8EEE76A07EE900A54
:10051000B8EE477AF8EE677A5D4B76EEE76A77EEEB
:10052000677ADA8086EEA77A0023B5EEC07AF1EE1C
:1005300010FA00F1A387DFED587A594BB4EEE77A51
:10054000F1EE10FA01F3CC80DFED567A83ED007AFC
:10055000B4EEE77AF1EE10FA41F32384524B06939E
:100560001B7813F0040F514B079305D01B689A00BA
:1005700002D54F4B01221A704E4B1B885B0601F1CE
:100580003C8096F89C31002B40F0D28796F89D3144
:1005900023B1484A1288570641F12083069B4249FD
:1005A0001B78580700F1BE87079A1268D207424AA3
:1005B00012785CBF43F001030B70170703D4069A4F
:1005C00003F0FE0313703D4A12881AB1D9F80020D7
:1005D000900704D43A4A1288002A00F0B385394AB9
:1005E000069823F0010302210370117008F066FCE5
:1005F000354B1B68C01A002801DB13F0D7F9AB6834
:100600000BB132489847324F3B78ABB11C4B1D4978
:10061000B3F90620B6F898319A420DDC4B79012BDC
:1006200001F0B883192B01F0B5830E2B04D0082BF1
:1006300002D0174A00239380144B1D681A4695F880
:10064000203123B11B490988890741F06381D9F81A
:1006500000309A0609D5174B1B8803F0300323B1ED
:10066000154B1B78DB0701F1C6831A4B1B78002B57
:1006700043D00F4B1B7833E0841B0020101B00205D
:10068000DC470020983F0020B0480020DC1A002002
:100690007C3600200000FA430000C842781F00208A
:1006A00000370020CDCCCC3D941A0020901A0020B9
:1006B0008F3600208C1A0020141B00205E1C0020A6
:1006C000581C0020E0480020E4480020801E002044
:1006D000500F0020090400208C3600201F85EB51AC
:1006E000002B41F0EC824949494B00220020086070
:1006F000486088601A605A609A60464B464819689C
:10070000464BB6F86C2106680093284605F1600355
:10071000B047434A434B107893F803E0032806D9C7
:10072000D4F8D8315B88B3F5FA7FC1F0D382079B48
:100730001B6813F0205300F07583002801F0A28499
:10074000394BD4F8D821B3F9041092F90050B3F919
:100750000220B3F900306D4205EE903A334B01FBB5
:1007600005F105EE102A07EE901A1B68304A0026A4
:10077000B8EEE76AB8EEC55AF8EEE55A03F48057CA
:1007800002EB001C314611AD0AE09E42C8BF1E4676
:1007900041F3EF841032624505F1020500F00E8549
:1007A000D2ED017AD2ED026A92ED037A65EEA77A74
:1007B000E6EE857AE7EE067AFDEEE77ACDED027A8F
:1007C000BDF9083017B103EBD3735B1099422B804E
:1007D000DBDA1946DEE764230293F5E504F1080A43
:1007E000B1460027B9F9003000EE103A5046B8EE95
:1007F000C00A0CF0C9FD16F02FFA0137032F0AF1D9
:10080000240A29F8020B6767ECD179E570360020DD
:10081000E0360020101B00200C04002020410020A6
:1008200004370020BC480020C0360020B04800201B
:100830004C1500203A88ABF800200237B9420AF183
:10084000240A0BF1020B7FF41AAD9A46E849D9F855
:100850000030B1F90220B1F900B00692180740F15A
:100860007F84BBF1000F00F07B84002A00F07884C5
:10087000B1F904200492002A00F07584DD4A9FED4E
:10088000DE8ADE4F029200230121B6F90220D4ED68
:10089000517ADFEDDB5A07EE102AB6F90020B8EEE8
:1008A000C77A06EE102A67EE279AB6F90420B8EE4A
:1008B000C66A06EE902A26EE27AA29EEA90AF8EEC5
:1008C000E66AAAEE0A0ACF4A66EEA7AAB2F90020A3
:1008D000AAEEAA0A0DEE902AF1EEC0BAC94AB2F900
:1008E00002200DEE102AC74AB2F90420B8EE689A29
:1008F00007EE102AF4EE6BBAF1EE10FA29EE259A03
:10090000F8EEEDDAB8EECDDAF8EEC7CA41F075844C
:10091000002B00F0C586DFEDBC7AB4EEE78AF1EE7D
:1009200010FA08DD9FEDB97A38EE478AB4EEE78A0F
:10093000F1EE10FAF8DCDFEDB67AB4EEE78AF1EE0C
:1009400010FA08D59FEDB17A38EE078AB4EEE78A3F
:10095000F1EE10FAF8D4B6EE000A28EE000A07917C
:100960000DF032F89FEDA4BA079930EE0BBAC9B179
:1009700007EE90BAB8EEE7CADDED067A9DED047A8F
:10098000B8EEE78A6CEE0C7AB8EEC7EAE8EE087AC1
:100990009FEDA07AEEEE0E7AF4EEC77AF1EE10FA41
:1009A00001F3CC829FED948A9B4EB0EE48CA6DEE67
:1009B0000D5ADFED987AEDEEAD5AECEEAC5AF4EE4E
:1009C000E75AF1EE10FA00F32287DAED017ADFED53
:1009D0008A5AF4EEE57AF1EE10FA40F38D879FED36
:1009E0008F7AF4EEC7BAF1EE10FA00F1B68694ED04
:1009F000526A94ED537AD4ED546A894B06931B786E
:100A0000DAED027A590740F1F486B7EE005A27EE84
:100A1000855AF6EE005AEBEE056A824B824993ED59
:100A2000004AD1ED003A814ADFF80CB292ED003A6B
:100A3000DBED004AACEE056AA8EE057A69EE255AB0
:100A400076EEAA6A36EE0A6A66EEA56A37EE297A6B
:100A500026EE256A26EE845A67EE257AA6EE235AFC
:100A600064EE675AA7EEE45AE3EE465A23EE667A3E
:100A7000E6EEE45AA7EEA37A35EE035A67EE837AE0
:100A800025EE050A75EEA35AE6EEA37AA6EE247AC1
:100A9000F0EE406AE5EEA56A37EE047AE6EE447AB7
:100AA000E7EE076A77EEA47A82ED005AE7EEA76ACE
:100AB000C1ED005AB1EEE60A83ED007AB4EE400AC9
:100AC000F1EE10FACBED007A41F0C483B7EE007A74
:100AD000C7EE007AD1ED005A92ED006A9BED007AE4
:100AE000D3ED006A9FED528A65EEA75A26EE276A7B
:100AF00066EEA76A67EE277AC3ED006AC1ED005A79
:100B000082ED006ACBED007A0EF01CFAD6ED080AF1
:100B100096ED070A16F092F920EE080A16F09CF8F6
:100B200096ED060A029BB1EE400A188016F026F9EF
:100B3000DFED407A37EEC00A20EE080A16F08CF896
:100B4000029BD6ED000A96ED030A588016F076F95E
:100B5000D4ED557AE0EE487AB0EE670A16F07CF8EC
:100B600003B2002BC1F20A80224A938096ED086AF4
:100B7000D4ED567A3B7896ED048A96ED033A96EDDD
:100B8000010AD6ED073A96ED054AD6ED004A96EDF4
:100B9000065AD6ED025AB4EEE76AF1EE10FACCBF6F
:100BA00043F0080323F008033B70164BB3F90230FF
:100BB00007EE903A134BB3F90030F8EEE77A06EE01
:100BC000903A104BF8EEE66AB3F9043027EE888AC3
:100BD00007EE103AA6EE838A9AF80130B8EEC77A8B
:100BE00027EE800A67EEA37AA7EE048A012B25E0A0
:100BF000901B0020F81A002000000000141B0020A9
:100C0000BD378635BC1A0020DB0F4940DB0FC940D9
:100C1000DB0F49C00AD7233C64380020C2B8B23E7B
:100C2000941A00205C380020180500205838002055
:100C30004C3D0F44DB0FC93F60380020A6EEA40AEC
:100C4000E6EE857AB1EE488AA7EE250AE7EE067A47
:100C500000F00986AC4B1B8807EE103AB8EEC77A55
:100C600077EEC77AD4ED596A94ED587A79EE266A10
:100C700077EEC77A89EE266AA6EE277AB0EE479A13
:100C800084ED587A15F0E8FFD4F8686131780CF0FB
:100C900077FED4F86C31B0EE480A1844C4F86C0101
:100CA00015F0DAFF31780CF06BFED4F87031B0EE4D
:100CB000490A1844C4F8700115F0CEFF71780CF0A1
:100CC0005FFED4F87421D4F87811D4F87C31104444
:100CD00018EE902A01331144C4F87401C4F8781155
:100CE000C4F87C31FFF7A5BA012387F84031ADE5A0
:100CF0004FF4FA73FFF794BB0693B7F900300291F3
:100D000000EE103A5046B8EEC00A0CF03DFB15F06C
:100D1000A3FF0299ABF80000069B8EE57B49DF1725
:100D200081FB031EC7EB6E1E794931F91E10089135
:100D30000EF10107764931F917706FF0630101FB7D
:100D40000E3308997F1A03FB07F3704F87FB03E705
:100D5000DB17C3EB67130B44ACF80030FFF78FBB16
:100D6000A36FDFF8E4A11B789FED6A8A0293002746
:100D700038464FEA8709BEF57A7F09EB070300F092
:100D8000AF8336F91710DAF8102006EE901A624990
:100D900016EE90BA51F82710013204EB830304EBEE
:100DA000090C5944012AC3F88C20CCF8B810F8EE8D
:100DB000E66A00F0A683D3ED1F7AD3ED215A07EE41
:100DC000102A36EEE75AB8EEC76A85EE067A77EE55
:100DD000277AB0EE657A76EEE76AC3ED207AA5EE63
:100DE000267AC3ED1F7A83ED227A83ED217A7B0088
:100DF000E218BEF1010FA2F8C40026F81700474A16
:100E000000F072840137032F0AF1140AB1D1BEF148
:100E1000010F00F0E587424B0EF1FF3EA3F800E022
:100E2000FFF775BA3F4A1370002801F032813E493E
:100E3000D4F8D831B1F9025093F90020B1F9043057
:100E4000B1F9001004EE901A38495242B1F9061077
:100E500003FB02F304EE105A05EE101A05EE903A69
:100E6000334A3449F8EEE55AB8EEC44AF8EEE44A9B
:100E7000B8EEC55A02EB0015D2ED027A92ED006A87
:100E8000D2ED016A92ED037A64EE277A1032E6EE33
:100E9000057AAA42E6EEA47AE5EE877AFDEEE77AD5
:100EA00017EE903A21F8023BE6D1069B1B785907D2
:100EB00000F13782204B1F4A03EB400033F9021B3D
:100EC00022F8021B8342F9D194F8A4721349192F16
:100ED00006D80122194BBA401340002B40F02D8553
:100EE000DFF86880DFF85CB0D8F80060144B1B684E
:100EF0009A0600F1DF80BBF90000124D0022A5F137
:100F0000020EAB46AC4625E0040400201F85EB51E1
:100F1000901F002000000000281400207013002003
:100F2000581C0020A5360020C03600207C3600204A
:100F30004C150020E01A00201C35002032413003FF
:100F4000B0480020CC1A0020EC130020703500209F
:100F50003CF9020FB3180E32B3F90010B3F90230A6
:100F6000884203DB8342A8BF03461946702A2EF845
:100F7000021FEDD1D4F8D89199F9083003B3DFF806
:100F800034A20026B9F90620B5F9001050460DF03C
:100F900099FDD8F8003000B233442880B3F900201E
:100FA000B3F90230904206F10E060AF1880A03DB1B
:100FB0008342A8BF03461A46702E25F8022BE1D1C2
:100FC0007B1E182B74D8DFE803F04B73730D73731B
:100FD000733473737373732873737373730D407304
:100FE00073284B00BBF8081000200FF081FABBF803
:100FF0000A1001200FF07CFA0225634B1B689A0649
:1010000046D4D80200F1428294F81037002B3FF406
:10101000C6A80DF0B9FEFFF7C2B85C4E0020451C13
:10102000EDB236F8021F0FF063FA062D2846F6D10E
:1010300028E0BBF8061000200FF05AFABBF80810A1
:1010400001200FF055FA0225D7E7514E0025E8B2EE
:1010500036F8021F01350FF04BFA042DF7D1CCE71B
:1010600099F80430002B40F0A286069B1B7803F011
:10107000040303F0FF01002B40F0998608460FF0AF
:1010800037FA0125404B1B689E0601D4052FB8D1C5
:101090002846BBF800100FF02BFA681CBBF80210B2
:1010A000C0B20FF025FA384B02351B68EDB2A8E745
:1010B0000025E7E7737AFF2B00F03182354A12787A
:1010C0009A4240F22C82344A32F91300F37DABF895
:1010D0000000FF2B00F020822E4A12789A4240F244
:1010E0001B822D4A32F91320079BABF802201B68A4
:1010F0002A4D1B067FF501AFD4F8C8321B78012BAF
:1011000000F06987264996F90690B1F9023096F900
:1011100014C0DFF8A4E0B1F9001019FB03F91CFBBF
:1011200001F18EFB093C4FEAE9798EFB013EC9EBE8
:101130002C19CB174844C3EB2E1300B2134428805C
:101140006B80DAE617490988B1F57A7F3FF647AA3E
:1011500013F0010F144B08BF02221A70FFF746BAB2
:10116000B1F904200492114F387800F0100101F019
:10117000FF0E002940F00B83094A9FED0D8A029271
:1011800073467146FFF781BBB0480020CE1A00209D
:10119000D01A0020F4460020DC470020CC1A0020A2
:1011A000F81A00203A480020E0480020141B0020D4
:1011B00000000000401600201F85EB518A1B12B270
:1011C000BD4BB3F90690002F00F08382BB4B1B6828
:1011D0009D88D9886E1AB14500F3C585B849B3F921
:1011E00000500B680126B3F900C084F89C62ABB2D2
:1011F0001FFA8CFCCCEB03052DB2954280F25B828A
:10120000B04B01261E7060B111AE06EB4007B6F977
:10121000003003FB05F393FBF2F326F8023BB742E1
:10122000F5D105EBD5750CEB650C0FFA8CF705EED7
:10123000907A069B002800F05287A04A93F800801D
:101240001268A14B0A9207EE909A9B4A1B68B2F96A
:1012500006B0D4F8A0220E680492B8EEE75A07EE62
:10126000907A94F89C229949DFF870C2089208F0AD
:101270000408F8EEE55AB8EEE76A5FFA88F803F07A
:10128000100503F4805900220CEB0213D3ED006A21
:1012900011AB65EE267A33F91230F4EEC67A07EE1A
:1012A000103AF1EE10FAB8EEC77A00F19E80F4EE33
:1012B000657AF1EE10FAC8BFF0EE657A77EE277A1C
:1012C000FDEEE77ACDED027ABDF9083021F8023B58
:1012D0003DB1049F3F8ABB45BCBFB6F9043021F83D
:1012E000023CBEF1000F69D0B788B6F802A0BB423D
:1012F00003DB9A455746A8BF1F4621F8027C1DB163
:10130000B8F1000F40F0958001328242BCD1B8F1B3
:10131000000F3FF4CFAD079B1B6813F0205F7FF4F5
:10132000D3AD694B1A6812F4805A40F06185674B5F
:101330000128B3F900100BD900F10046013E03EB80
:10134000460633F9025FA942B8BF2946B342F8D135
:101350005B4B1B685B88994240F34A85CB1A1EB2EF
:1013600000283FF4B1AD554D5549584BD5F8009084
:10137000514D0968D4F8A0C2B5F9067002F0100BFF
:1013800003EB40007546BAF1000F31D0BCF80EE017
:10139000B9F80620C2EB0E08474540F3708172444D
:1013A000974280F26C817745CCBFB9F80220B9F83A
:1013B00000201A8002339842E5D185E5B9F1000F8B
:1013C00030D0089F37B3378802970A9FB7F800A03C
:1013D000029FBB4204DB9A455746A8BF1F460297AF
:1013E000BDF8083021F8023C89E7F0EE467A65E75F
:1013F0001A88921B12B21A803DB3B1F804E0B1F81A
:101400000280724503DB9045C646A8BF9646A3F806
:1014100000E0CFE70A9FB6F802A07F88BB42BFF684
:1014200068AF6AE73788B6F802A0BB42BFF661AF83
:1014300063E7B9F1000F7FF467AF049B1B8A9B45FC
:10144000BCBFB38821F8023C5EE7B1F800E0B1F818
:101450000280724503DB9045C646A8BF9646A3F8B6
:1014600000E0BCF810209742A4DABBF1000FA1D035
:101470008A881A809EE70023FFF721B8144A15498D
:101480001360154B06910793FFF776B80A4B284671
:10149000198903F108060FF02BF80135EDB206F1BA
:1014A0001A0736F8021F28460FF022F80135B74216
:1014B000EDB2F6D1A8E500BFDC470020D837002008
:1014C000DC370020A5360020B0480020E01A0020BC
:1014D00000370020941A0020901A00204C1500209C
:1014E00036F91720CAF8100004EB8303012107EE38
:1014F000902AC3F88C1004EB0903F8EEE76AC3F8EE
:10150000B82009EB070304EB8303C3ED206AC3EDA6
:101510001F6A83ED218A6AE4B6F91220E4E5B6F980
:101520000400D3E5012100200EF0EEFFFFF767B8BD
:1015300094F89A31DF4FB4F89881002B00F03F8483
:10154000DD4BDC4F1B8800EE103A07F5CE70B8EE8D
:10155000400A0BF019FFFCEEC07AD84BCDED027AB1
:10156000BDF808001B78B8FBF0F000F101080FFA95
:1015700088F8A4F8C081002B00F00683DFF850A3A0
:10158000B7F9C2B107F5E27C4FF0000E07F5E67738
:101590003AF9023B3988BCF9002027F8023B0EF1EA
:1015A000010E5B1A02FB0BF2BEF1040F92FBF8F284
:1015B00013442CF8023BEBD1C04A00B20023A4F83C
:1015C000C2011370002840F30684BD49B4F9C0C1BC
:1015D0000A9AA1F1080701F1080E31F9028B37F9D7
:1015E000023B714503FB00F393FBFCF3C3EB0803E1
:1015F00022F8023BF1D1FEF7C9BFB24BB24AB3F9B0
:101600000430B4F896119FEDB17A82FB0302DB1728
:10161000C3EBA2035B1A1BB208EE103AF8EEC87ACD
:1016200027EE878AB0EE480A0CF0BAF9F0EE408A4D
:10163000B0EE480A0CF0C8F9A54BA549B3F9023041
:1016400007EE103AA24BB3F90030B8EEC77A06EEB7
:10165000903A67EE407AF8EEE66A20EE260AE8EE67
:10166000A67AA8EE870AFDEEE77A17EE902AFDEE3D
:10167000C07A0A8017EE903A4B80FEF782BF77451A
:10168000B3F900E040F33B83B9F80220B1F80280DF
:101690009645FFF6EEAEF0454246A8BF7246E8E634
:1016A0009FED8CBAFFF763B9079BDB79C3F1640345
:1016B0000293FEF789BE02EBD27252109B1A864D3E
:1016C00094441BB200220FFA8CF705EE903A2A7070
:1016D000AFE582490B68B3F900C0B3F9025086E563
:1016E000C3ED007AFEF73ABF09EB070102EB810276
:1016F000D2F88C10012940F3C184013907EE901A09
:1017000092ED227AF8EEE77A87EE270AF1EEC07AB8
:10171000F4EE677AF1EE10FA40F0A885029A4AB129
:1017200007EE102AB8EEC77AB4EEE77AF1EE10FAB7
:1017300000F11985A1446A49D9F8B820B1F800E050
:10174000684902F5FA7281FB02C12344D217C2EB49
:10175000A112A3F8C420FFF755BB27EE8C5A94EDD5
:10176000526A94ED537AD4ED546A67EE885A67EE64
:101770008B7AA9EE056AA9EE257AE9EE276A84ED4F
:10178000526A84ED537AC4ED546AFFF736B913F008
:10179000200300F0F88200F0020000F0FF030028B0
:1017A00000F0F182504B1B78042B40F2EB824F4B40
:1017B0001B88B3F5967FC0F0C9844D4B414A1B8806
:1017C000DFED426A029207EE103AB8EEC77AB2EE47
:1017D000046A87EE068AB2F90430002107EE903AD7
:1017E000F8EEE77A012377EEC87A27EEA68AFFF7AC
:1017F0004CB8404B1A6844F61F639A42F7EE005A01
:10180000B2EE045A88BFB0EE655AFFF700B9B1EEE8
:10181000E50AB4EE400AF1EE10FA40F0AE84F7EEBD
:10182000007A87EE807AD6ED074AD6ED083A96ED33
:10183000064A6DEE877A6DEE076A2CEE877A63EEC4
:10184000E75A24EEC75A24EE666AA6EEA35AE7EEDC
:10185000045AA7EEA46A3CEE05CA38EE258A3BEE90
:1018600006BAFFF7B2B8069B1B7813F0040FD4F842
:101870005C3112D1002B1A46B8BF03F13F02A3EB33
:10188000A21307EE103AB8EEC77A37EE277ABDEE0C
:10189000C77A17EE103A84ED577A002BB8BF3F3362
:1018A0009B1107EE103AB8EEC77A77EEC77AFFF7CA
:1018B000D9B900BF70130020841A0020F81C002042
:1018C0003C150020F81A00206766666635FA8E3CE3
:1018D0007C36002000000000A5360020DC37002008
:1018E000581C0020D34D6210151B0020221B002025
:1018F000241B0020E4320020F0EE656AB0EE657A29
:10190000B0EE656AC4ED525AC4ED535AC4ED545A50
:10191000FFF773B8A049DFEDA17A91ED080AB4EEA4
:10192000E70AF1EE10FA00F2838300209C4B9C4AF8
:10193000DB880344D380FEF78ABE9A4B1B88DD0503
:1019400040F1B783964AD1F8A03210885188928826
:10195000ADF84400ADF84610ADF84820D989924B57
:10196000B3F906C0914A9248B2F90230B2F90020A8
:10197000904D4FF47A7603F5E16306FB03F3C1EB78
:101980000C0C02F5E16206FB02F2ADF852C080FBDE
:10199000038C9C4480FB0280DB17C3EBEC231044D8
:1019A000D217C2EBE020A3F5FA72B5F800E0ADF86B
:1019B0005C207D4D7C4A6E882F88B2F80AC0AD88C5
:1019C000A0F5FA73ADF85E3013461089DB89928971
:1019D000761AADF84E60461A7748ADF85460521A40
:1019E0007F1A6D1AC1EB0C0CAEF2DC5E591AADF821
:1019F0005820ADF84AE0ADF84C70ADF85050ADF855
:101A000056C0ADF85A100346002223F8022F6B4946
:101A10008B42FAD16A4BDFF8B8811B780893002B10
:101A200000F09C83079BD8F800601B680C93002291
:101A3000644B654FDFF89CB10D9094460A96029373
:101A4000CDF8388015E00122153302FA03F30C9A21
:101A5000134011D1029A1380029A02320CF1010C48
:101A60000292089A5FFA8CF39A4207F1070740F254
:101A70004E813B78002BE6D117F9012C17F8060CA4
:101A800004920A9A17F9023C504E17F8038C17F883
:101A9000055CC0EBC00102EB4101B1F900E0B1F916
:101AA0000220CEEB020292B202FB03F386FB036E2E
:101AB000DB17C3EB6E134FEA5209C9EB03031BB2EA
:101AC000B8F1000F34D118AE06EB450E029E3EF978
:101AD0001CECA6F800E0012617F9048CD1F80A10D6
:101AE00006FA05F5394E18FB0EFE86FB0E6A4FEA24
:101AF000EE7E2942CEEB6A1E0CBF01214FF0FF3172
:101B00009E450EDB049B02FB03F2304B83FB02532A
:101B1000D217C2EB6312C9EB02031BB27345A8BF15
:101B200073463BF8102003FB01232BF8103093E79A
:101B3000029EB6F900E018AE06EB450A3AF91CAC75
:101B4000D6450EDBC7DDC8EB0E08D04503DBC64526
:101B5000A8BFC646F246029E0FFA8AFEA6F800E02B
:101B6000B9E7F044C64503DCC245D646A8BFC64621
:101B7000029E0FFA8EFEA6F800E0ACE70B4B00F5D4
:101B800061609880FEF7F2BFB7F8C201013800B279
:101B9000A7F8C20116E500BF643800208FC2753C6B
:101BA0007C3600208C1A0020DC470020F81A002028
:101BB000C5B3A291E01A0020CA1A0020DA1A002048
:101BC000E037002018160020EA3700201F85EB516F
:101BD00070350020CC1A002035FA8E3C07EE903A82
:101BE0001FED037AF8EEE77A67EE877A17EE900A30
:101BF00012F09EF941EC100B41EC180B14F024FF8D
:101C0000BB4BB3F900008DED020B12F07FF9B0EE83
:101C1000480AF0EE680ACDE9040114F075FFB44BF0
:101C2000B3F9040058EC107B12F070F9DDE90423DD
:101C300082468B46DDE9020112F0CEF95246CDE92B
:101C40000A015B4638464146CDE9087812F0C4F9EE
:101C500002460B46DDE90A0112F00CF812F056FCC0
:101C6000A44FB0F5FA7F8646A8BF4FF4FA7EBE4572
:101C7000B8BFBE469E4F5246A7F800E05B46DDE97E
:101C8000020112F0A9F9DDE9082382468B46DDE95D
:101C9000040112F0A1F90B4602465946504611F0D4
:101CA000E9FF12F033FC934BB0F5FA7FA8BF4FF475
:101CB000FA709842B8BF1846B880FEF76FBC3B7800
:101CC000002B7EF410AD079B1B689F003EF515AD01
:101CD000FEF709BD864A884DB2F90410B5F90460D3
:101CE0000029B8BF49425A42521A964204DB0B44BB
:101CF000B342A8BF33461A46AA80FEF718BD8A88A9
:101D0000B9F800809645BFF6C6ACFFF7B2BB0D9898
:101D10000A9EDDF83880794BDFF81CE21D783146E9
:101D200009E0774F37F9122013440380754B98422E
:101D300001F10E0113D030F9023F91F9062012FB98
:101D400003F28EFB0273D217C2EB631303804A7A4D
:101D5000FF2A01D0AA42E4D3B1F90420E4E794F8C1
:101D6000A472FFF7C3B8294489456749B3F902C093
:101D70000B68C0F258810026B3F9025084F89C62C7
:101D8000FFF735BA0023614A9FED618A0292194636
:101D9000FEF77BBD96F8EA31002B3EF44AACFEF725
:101DA0004BBC5C4B06935C4B0793FEF7E5BBBBF863
:101DB0000A1000200EF09CFB0125FFF763B99FED90
:101DC000540A07F5CE7101200BF006FB012387F8BA
:101DD0009A31FFF7B5BB0023A4F8C231FEF7D6BB9A
:101DE000704606F083FF4D4BB3F800E0FFF713B8E1
:101DF0000026FFF7B5BA454B494AB3F904309FEDC9
:101E0000497A82FB0312DB17C3EBA2031BB208EE75
:101E1000103AF8EEC87A27EE878AB0EE480A0BF03F
:101E2000D3FDF0EE408AB0EE480A0BF0B9FD3E4B10
:101E30001B6893F803E0BEF1000F00F056813B48A9
:101E40003B4AB0F902C0B2F9023044F25061CCEB27
:101E500003038B4240F37181A3F50C43A03BCEF109
:101E60000001994200F370817345A8BF7346B2F92F
:101E70000020B0F9008063440FFA83FCC8EB020233
:101E800044F250639A42A0F802C040F34F81A2F599
:101E90000C42A03A914203DC96457146A8BF114618
:101EA00008EB01031BB207EE903A07EE10CAF8EEFA
:101EB000E77AB8EEC77A27EEE86A1E490380A0EEFB
:101EC000076A60EE277AE8EE877AF2EE045AC6EEE9
:101ED000256A87EEA57AFDEEE67A17EE902AFDEEEA
:101EE000C77A0A8017EE903A4B80FEF7BEBB00BF60
:101EF0007C3600200CFEFFFFC0360020F446002098
:101F0000DC470020DA1A0020DC370020F81A002015
:101F100000000000941A0020901A0020581C002095
:101F20006766666635FA8E3C981C0020A01C00206F
:101F3000A41C0020883600201F85EB51B1EEE70A73
:101F4000B4EE400AF1EE10FA40F0BC81F7EE007AF0
:101F5000C7EE806ACD4E96ED047AD6ED035AD6EDE3
:101F6000017A96ED006A28EE268A2CEE26CA28EE23
:101F7000077A68EE277AACEE257A2EEE26EAECEEAA
:101F8000067AD6ED056AB0EE478AAEEE268A96ED61
:101F9000027AEEEE077A28EE080AA7EEA70AF1EE1B
:101FA000C07AF4EE677AF1EE10FA40F0698167EEDC
:101FB000C87A9FEDB78A96ED086AD6ED066A96ED67
:101FC000077AB0EE48CAA7EE86BAA7EEA6CAA7EE71
:101FD000878AFEF7ECBCAF4B96F90610B3F9029076
:101FE000B3F900E096F914C0AB4B494209FB01F18B
:101FF0001CFB0EFE83FB019C83FB0E93C917C1EBF8
:102000002C111B114FEAEE7E1FFA81FCC3EB0E016F
:102010006144CEEB0303401A634400B21A442880A3
:102020006A80FEF76ABFE146B3F90250FFF7DFB8F6
:102030000492029314F0A2FED4ED757A20EE270AE2
:1020400014F00AFEB0F5617FA8BF4FF4617007EE8F
:10205000900A9FED920AF8EEE77A87EE800A0BF07D
:10206000B3FC029B07EE903AF8EEE77A27EE800A7F
:1020700014F0F2FD049A80B2156857E49FED840ACB
:10208000FFF744BB864B1B68024603F48057FFF7FB
:1020900097B8069B1B785B077EF516AF804B1A68D6
:1020A00012F4805A7EF410AF7E4BB3F90010FFF7A4
:1020B0004FB97D4B7A4A18881268ADF844005888A9
:1020C000ADF84600B3F90430ADF84830D00421D45F
:1020D000D1F8A032754AD989B2F906C042E41B781A
:1020E0005E077EF5F1AEFFF716B9714B7149B3F992
:1020F0000020B3F9023007EE902A07EE103AF8EE0E
:10210000E77AB8EEC77A27EEE86A60EE277AA0EEA3
:10211000076AD8E6D1F8A0226449B1F906C0D1898E
:102120008C45BCBF5B42ADF848301BE4624B9A4221
:10213000BCBF02F50C42A032ACE65F498B42BCBF8B
:1021400003F50C43A0338AE60B4690E60023514A80
:102150009FED4F8A02921946FEF797BBA1F10E0B35
:10216000D8F80060D7E5554A4FF47A731380FEF72C
:10217000CEB80B461946FEF70DBBB0EE650A14F05B
:102180005FFEFFF74CBB069991F81A711FB19F4291
:10219000B4BFDB1B00230499002938D00799097AC2
:1021A00007EE903A06EE901AB8EEE77AF8EE666A15
:1021B000C7EE047A4249C6EEA45A27EEA76A75EE26
:1021C000656A26EE276A66EEA77AE5EE867A27EE3E
:1021D000877ADDED0C7AF8EEE77A67EE277AFDEE86
:1021E000E77A17EE903A8B804FF0640342458AF805
:1021F0000230FEF64AA9FEF752B90893079114F08F
:102200001FFE089B0799F0EE40BAFEF781BB6421E0
:1022100093FBF1F704EB47018E46B1F988110F915A
:10222000BEF98A1108916FF0630E0EFB07330E930F
:102230000F9F089BC7EB030E0E9B642103FB0EF35D
:1022400093FBF1F3BDF834103B4413FB01F31C493D
:102250008B80C9E7B0EE660A08930792049114F0E8
:10226000EFFD089B079A0499FEF730BC0490069393
:1022700014F0E6FD0498069BF0EE407AFFF74EBAA4
:1022800014F0DEFDF0EE407A91E600BF64380020E5
:1022900000000000F81A00201F85EB51EFB6B04493
:1022A000B0480020E01A0020C0360020DC470020A3
:1022B000A41C002088360020B0B9FFFF581C002065
:1022C0007C360020B0EE670A14F0BAFD3EE600BF8F
:1022D0002DE9F04F2DED048B013883B0FD2801F27C
:1022E0008E82DFE810F06D0A550A310A040ACC0923
:1022F0008C0A8C0A8C0A8C0A8C0A8C0A8C0A8C0A2E
:102300008C0A8C0A8C0A8C0A8C0A8C0A8C0A8C0A1D
:102310008C0A8C0A8C0A8C0A8C0A8C0A8C0A8C0A0D
:102320008C0A8C0A8C0A8C0A84098C0A7C098C0A17
:1023300068098C0A48098C0A3F098C0A0D098C0A25
:102340008C0A8C0A8C0A8C0A04098C0AB0088C0A44
:102350008F088C0A4E088C0A490835088C0A170821
:102360008C0A8C0AFF078C0AC7078C0A8C0AB007F4
:102370009D078C0A8C0A91078C0A6F078C0A3F070D
:102380008C0A8C0A8C0A8C0A8C0A8C0A8C0A8C0A9D
:102390008C0A8C0A8C0A8C0A8C0A8C0A8C0A8C0A8D
:1023A0008C0A8C0A8C0A8C0A8C0A8C0A19075F0624
:1023B00023061D061706FF05BF05A105860577053F
:1023C0003D05990460048C0AB30392034C03370360
:1023D000F102B80251028C0A8C0AEE018C0A8C0AB6
:1023E0008C0A8C0A8C0A8C0A8C0A8C0A8C0A8C0A3D
:1023F0008C0A8C0A8C0A8C0A8C0A8C0A8C0A8C0A2D
:102400008C0A8C0A8C0A8C0A8C0A8C0A8C0A8C0A1C
:102410008C0A8C0A8C0A8C0A8C0A8C0A8C0A8C0A0C
:102420008C0A8C0AD1018C0A8C0A8C0A75018C0AE0
:102430008C0A8C0A8C0A8C0A8C0A8C0A8C0A8C0AEC
:102440008C0A8C0A8C0A8C0A8C0A8C0A8C0A8C0ADC
:102450008C0A8C0A8C0A8C0A8C0A8C0A8C0A8C0ACC
:102460008C0A8C0A8C0A8C0A8C0A8C0A8C0A8C0ABC
:102470008C0A8C0A8C0A8C0A8C0A8C0A8C0A8C0AAC
:102480008C0A8C0A8C0A8C0A8C0A8C0A8C0A8C0A9C
:102490008C0A8C0A8C0A8C0A8C0A8C0A8C0A8C0A8C
:1024A0008C0A8C0A8C0A8C0A8C0A8C0A8C0A8C0A7C
:1024B0008C0A8C0A8C0A8C0A8C0A8C0A8C0A8C0A6C
:1024C0008C0A8C0A640111018C0A8C0A8C0A8C0A11
:1024D0008C0A8C0A8C0A8C0A8C0A8C0A8C0A8C0A4C
:1024E000FE00082100209F4C10F0D6FB04F10805E7
:1024F00034F8020B10F02CFCAC42F9D1012003B0EF
:10250000BDEC048BBDE8F08F70210020964E974DF6
:10251000974C10F0C1FB06F1700896F8D07028684F
:10252000394606F011FD2268286893797B40937143
:1025300096F8D170394606F007FD2268286893792D
:102540007B40937196F8D270394606F0FDFC226804
:10255000286893797B40937196F8D370394606F0DA
:10256000F3FC2268286893797B40937196F8D470C5
:10257000394606F0E9FC2268286893797B4093711C
:1025800096F8D570394606F0DFFC22682868937902
:102590007B40937196F8D670394606F0D5FC2268D8
:1025A000937907367B4046459371B6D1A6E7714CC7
:1025B0000421002010F070FBA36DB3F8620010F04E
:1025C000C7FBA36DB3F8600010F0C2FB012096E7D3
:1025D000DFF8A081654D98F8BC10654C8900013189
:1025E000C9B2002010F058FB98F8BC60286831464A
:1025F00006F0AAFC226898F8BC1093797340937196
:1026000000293FF47BAF08F1BF0308F1CF0A08F1BE
:10261000DF0908F1EF074FF0000B1E46CDF80080F0
:1026200016F8018F2868414606F08EFC216828685C
:102630008B7988EA03038B711AF8018F414606F003
:1026400083FC216828688B7988EA03038B7119F869
:10265000018F414606F078FC216828688B7988EA6A
:1026600003038B7117F8018F414606F06DFC21685A
:10267000009B8A7993F8BC000BF1010B88EA0202F7
:1026800058458A71CCD839E70C21002010F004FBA2
:10269000394B1C68A0B210F05BFB200C10F058FB0B
:1026A000364B1C68A0B210F053FB200C10F050FB0E
:1026B000334B1C68A0B210F04BFB200C10F048FB11
:1026C0001CE73C21002010F0E7FADFF8A8809FED1E
:1026D0002D8A0024D8F8583003EB840393ED080AC0
:1026E00020EE080A14F0B8FA80B210F031FBD8F8E6
:1026F000583003EB840393ED0B0A20EE080A14F024
:10270000ABFA80B210F024FBD8F8583003EB840306
:1027100093ED0E0A20EE080A14F09EFA013480B2FE
:1027200010F016FB032CD5D104259FED168A01E08D
:1027300001340135072CD8F8583001F08181234449
:10274000587810F005FBD8F858302344D87A10F0A8
:10275000FFFAD8F858302344587D10F0F9FA0A2DC2
:10276000E6D1CBE6841B0020983F0020903F00205C
:10277000943F0020841A0020107AFF1F147AFF1F54
:10278000187AFF1F00007A447021002010F084FAAC
:10279000A84DA94CDFF8B0824FF00009C9EBC9067B
:1027A000D8F858307600334409F10109B3F8210113
:1027B00010F0CEFAD8F858303344B3F8230110F0B3
:1027C000C7FAD8F858303344B3F8250110F0C0FAEE
:1027D000D8F858302868334493F82771394606F002
:1027E000B3FB2168D8F858308A79286833447A4096
:1027F0008A7193F82871394606F0A6FB2168D8F84B
:1028000058308A79286833447A408A7193F829715C
:10281000394606F099FB2168D8F858308A7928683B
:1028200033447A408A7193F82A71394606F08CFB5A
:102830002268D8F8581093790E447B409371D6F8EB
:102840002B61B0B210F084FA300C10F081FAB9F1BB
:10285000080FA3D152E6DFF8F081002098F811109C
:1028600010F01AFA98F81130002B3FF447AE734E6F
:10287000704DDFF8C49108F113070024002317F806
:10288000010F6F4A194604E00133222B16D012F8CB
:102890000C1C884202F10C02F6D1DBB203EB4303BD
:1028A00006EB8303286893F838A0514606F04CFBEA
:1028B000D9F8002093798AEA0303937198F81130CC
:1028C0000134A342DAD819E65B4C2268D379591C4B
:1028D0001344D1711F7A1221002010F0DDF9002F6E
:1028E00041F09E80DFF86081D8F8A850D8F8AC603D
:1028F0001FFA85FA1FFA86F92D0C360CDFF834B171
:102900003946DBF8000006F01FFB226893795F4030
:102910009771504610F01CFA284610F019FA4846F4
:1029200010F016FA304610F013FAD8F8B840A0B2FA
:1029300010F00EFA200C10F00BFA002010F008FA3C
:10294000002010F005FADBF80000002106F0FCFA88
:102950000120D4E52F21002010F09EF9374F354D8E
:10296000354C52263146286806F0EEFA22689379F3
:102970005E40967117F8016F002EF3D1BEE501227B
:1029800000238DE80C00DFF8C0802A4E2A4D98F80D
:102990001130002B00F03E872A4F0024002317F847
:1029A000010B274A0134194605E00133222B00F0C0
:1029B0002C8712F80C1C884202F10C02F5D11F4A38
:1029C000DBB203EB430302EB8303D3F834B0584686
:1029D00011F042F9009B002B40F014870028C8BF7B
:1029E0000BEB000A0CDD1BF8019B3068494606F032
:1029F000ABFA2B689979DA4589EA01019971F2D12C
:102A000098F81130A342C9DC78E50821002010F0C5
:102A100043F9084D084C0127FEB23146286806F0FC
:102A200093FA2268937901377340092F9371F3D198
:102A300064E500BF903F0020943F0020809601088D
:102A4000BC960108981A0020841A0020BF4CC04D83
:102A5000C04E1C21002010F01FF9B4F8960110F0B0
:102A600077F9B4F8400110F073F9B4F8420110F0AE
:102A70006FF9B4F8440110F06BF9B4F8DC0110F010
:102A800067F994F8F1712868394606F05DFA326802
:102A9000286893797B409371002106F055FA94F8E9
:102AA000F2712868394606F04FFA3268286893793F
:102AB0007B40937194F88571394606F045FA326887
:102AC000286893797B40937194F89271394606F0A7
:102AD0003BFA3268286893797B409371002106F0B5
:102AE00033FA9D4B9D489B6DB3F95E3080FB03200C
:102AF000DB17C3EBA00080B210F02AF994F87A71CA
:102B00002868394606F020FA3268286893797B40B5
:102B1000937194F87E71394606F016FA3268286887
:102B200093797B40937194F87D71394606F00CFAE5
:102B30003268286893797B40937194F87F713946A5
:102B400006F002FA3268286893797B40937194F812
:102B50006171394606F0F8F9326893797B409371D8
:102B6000B4F8500110F0F4F894F85F712868394611
:102B700006F0EAF93268286893797B40937194F8FB
:102B80006A71394606F0E0F93268286893797B402B
:102B9000937194F86941214606F0D6F93268937929
:102BA00063409371AAE4DFF8B0811E21002010F089
:102BB00073F8D8F858301A78022A00F06E8600268A
:102BC000634D644CC14601E0D9F85830286833445D
:102BD0005F78394606F0B8F92168D8F858308A7914
:102BE000286833447A408A71DF7A394606F0ACF9B6
:102BF0002168D8F858308A79286833447A408A7135
:102C00005F7D394606F0A0F92268937901367B4052
:102C10000A2E9371D8D171E4DFF83C814C4D4D4CB4
:102C20001021002010F038F8D8F88C3028681E7871
:102C3000314606F089F92268D8F88C109379286813
:102C4000734093714E78314606F07EF9226893798D
:102C5000734093714FF0000AD8F88C302868DFF881
:102C6000F8903B4F53440AF1010A1E79314606F0B1
:102C70006BF922689379BAF1030F83EA0603937123
:102C8000344EE9D1D9F88C303868DD792F4C29469B
:102C900006F05AF93268D9F88C10937938686B408D
:102CA00093718D78294606F04FF93268D9F88C1067
:102CB000937938686B409371CD78294606F044F9D2
:102CC0003268D9F88C1093796B409371488910F071
:102CD0003FF8D9F88C3038681D7A294606F034F967
:102CE0003268D9F88C10937938686B4093710D7BFA
:102CF000294606F029F93268386893796B40937158
:102D000094F84953294606F01FF9326838689379D8
:102D10006B40937194F84A43214606F015F93268E6
:102D2000D9F85810937938686340937191F84E4000
:102D3000214606F009F93268D9F8581093793868B5
:102D40006340937191F84F4025E700BF983F002002
:102D5000903F0020943F0020841A0020676666663A
:102D6000072100200FF098FF824B834A1B881068D0
:102D7000824EFF2BA8BFFF23DDB2294606F0E4F800
:102D80007F4BF06F1A684FF6FF749379A042A8BF8B
:102D900020466B4020EAE070937180B20FF0D8FFBC
:102DA000B6F880000FF0D4FF764B93F88531002BF6
:102DB00000F02C86D6F8843003EB83035800A04241
:102DC000A8BF204620EAE07080B20FF0C1FF0120CA
:102DD000FFF795BB062100200FF05EFF00200FF0EB
:102DE000B7FF00200FF0B4FF00200FF0B1FFFFF796
:102DF00085BB624C062100200FF04EFFB4F8740032
:102E00000FF0A6FFB4F876000FF0A2FFB4F9783007
:102E10005D49DA1781FB0313C2EBA30080B20FF008
:102E200097FF0120FFF76BBB544C052100200FF0EA
:102E300033FFB4F8A2000FF08BFFB4F8A4000FF03A
:102E400087FF94F8A6404C4B04F001041868214613
:102E500006F07AF84A4B1A6893795C409471012025
:102E6000FFF74DBB454CDFF81081454F1021002086
:102E70000FF012FF94F89050D8F8000005F002050A
:102E8000EDB2294606F060F83B6894F891609A79B3
:102E9000D8F80000554031469D7106F055F83A6863
:102EA000937973409371D4F89450A8B20FF050FF07
:102EB000280C0FF04DFFD4F89850A8B20FF048FF3F
:102EC000280C0FF045FFB4F89C000FF041FFB4F858
:102ED0009E000FF03DFFB4F8A0000FF039FF012075
:102EE000FFF70DBB294F3978490001F0FE010020A2
:102EF0000FF0D2FE3B78002B3FF400AB244D0024B2
:102F000035F8020F0FF024FF3B780134A342F7D8C5
:102F1000FFF7F4BA1F480FF015F80120FFF7EFBADA
:102F20001D480FF00FF80120FFF7E9BA1221002029
:102F30000FF0B2FE194B1A4C1B88B3F5806F94BF8B
:102F400001260826A51D34F9020B90FBF6F080B28D
:102F50000FF0FEFEA542F6D1084CB4F840000FF089
:102F6000F7FEB4F842000FF0F3FEB4F844000FF09F
:102F7000EFFE33E758260020903F0020841A0020FF
:102F8000943F0020983F002067666666F446002064
:102F9000DA470020E01A0020CC1A002004040020A8
:102FA000BC1A0020DFF850840B2100200FF074FEC3
:102FB000B8F800000FF0CCFE00200FF0C9FED8F8E2
:102FC0000430C3F3C0029200C3F3800042EA400021
:102FD000C3F340020243C3F3401042EAC00003F0CF
:102FE000100318430FF0B4FEB8F80820D8F80C30DE
:102FF00098F8101098F8114002F0080003F44755B3
:10300000054303F48040054303F40040054303F403
:103010008030054303F40030054303F4802005436A
:1030200003F40020054303F48010284303F07A439F
:10303000C1F3800112F0010F43EA000343EA0103E8
:103040000CBF0025022512F0020F45EA03050CBF54
:103050000021042112F0040F0CBF002310230D43A4
:1030600012F0400F45EA03050CBF0023202312F0A5
:10307000100F45EA03050CBF00234FF4007312F054
:10308000200F45EA03050CBF00234FF4806312F4C0
:10309000807F45EA03050CBF00234FF4006312F460
:1030A000007F45EA03050CBF00234FF4001312F420
:1030B000806F45EA03050CBF00234FF080631D437A
:1030C000002C00F0BA84002108F113080A46012000
:1030D00018F8013F00FA03F32B4218BF00FA02F37D
:1030E00002F1010218BF19439442F1D188B20C0CCD
:1030F0000FF02EFE20460FF02BFEBB4ABB4B92F882
:1031000010471868214605F01FFFB94B1A689379DC
:1031100063409371FFF7F2B9B44CB54E072100201C
:103120000FF0BAFD2068E72105F00EFF3368AE49C5
:103130009A794D79206882F0E7029A71294605F064
:1031400003FF3268206893796B409371002105F08A
:10315000FBFE04200FF0FCFD00200FF0F9FD012024
:10316000FFF7CDB9A34F397801EB4101C9B2002077
:103170000FF092FD3B78002B3FF4C0A9DFF8688286
:103180009A4D9B4C4FF0000998F8A361286831468E
:1031900005F0DAFE226893797340937198F8A431B0
:1031A00003EB830303EB830303F2EE2080B20FF003
:1031B000CFFD3B7809F101094B4508F10208E3D83E
:1031C000FFF79CB9884C894F894E042100200FF0ED
:1031D00063FD94F8DA513868294605F0B5FE326887
:1031E000386893796B40937194F8DB51294605F068
:1031F000ABFE326893796B409371B4F8DC010FF049
:10320000A7FD0120FFF77BB9022100200FF044FD4C
:10321000794BB3F888000FF09BFD0120FFF76FB9E1
:103220000D2100200FF038FD704B0021186805F0CB
:103230008BFE00200FF08CFD00200FF089FD002098
:103240000FF086FDCAE5132100206C4F674D684CD6
:103250000FF022FD07F10B0817F8016B28683146C3
:1032600005F072FE22689379474583EA060393715D
:10327000F2D1E4E75C4C5D4F5D4E102100200FF071
:103280000BFD65793868294605F05EFE3268937952
:103290006B409371A568A8B20FF05AFD280C0FF08F
:1032A00057FD94F890513868294605F04DFE326874
:1032B00093796B409371B4F858010FF049FDB4F85D
:1032C0005A010FF045FDB4F85C010FF041FDB4F870
:1032D00080010FF03DFDB4F882010FF039FD0120AF
:1032E000FFF70DB908210020454F404D404C0FF02D
:1032F000D3FC07F1080817F8016F2868314605F07C
:1033000023FE22689379B84583EA06039371F2D1CC
:10331000FFF7F4B8344C354F354D022100200FF043
:10332000BBFC94F8E4613868314605F00DFE2A686C
:10333000386893797340937194F8E341214605F01E
:1033400003FE2A689379634093710120FFF7D7B891
:10335000002001210FF0A0FC274B244A9B6D106830
:103360001C78214605F0F0FD214B1A6893796340E3
:1033700093710120FFF7C3B8042100200FF08CFCEB
:103380002FE5194D194E1A4C042100200FF084FC32
:1033900095F87A713068394605F0D6FD22683068B4
:1033A00093797B40937195F87E71394605F0CCFD99
:1033B0002268306893797B40937195F87D71394626
:1033C00005F0C2FD2268306893797B40937195F8CF
:1033D0007F51294605F0B8FD226893796B409371BF
:1033E0000120FFF78CB800BF983F0020903F0020DD
:1033F000943F0020F4460020841A002084B5010880
:103400001F410020C64BC74D93F80811DFF83483E5
:10341000C54FC64EC1EBC101C9B200200FF03CFC44
:1034200005F1280995F9F821002318F903109142B4
:1034300003F10C0300F0FB813C2BF6D108354D4520
:10344000F0D1FFF75BB8482100200FF025FCB64D06
:10345000B64CDFF8CC824FF00009D8F85830286815
:1034600009EB490603EB460609F1010996F8D67007
:10347000394605F069FD2268286893797B4093718D
:1034800096F8D170394605F05FFD22682868937977
:103490007B40937196F8D270394605F055FD22684D
:1034A000286893797B40937196F8D370394605F07C
:1034B0004BFD2268286893797B40937196F8D4700D
:1034C000394605F041FD2268286893797B40937165
:1034D00096F8D560314605F037FD22689379B9F149
:1034E0000C0F83EA06039371B7D1FFF707B80121E8
:1034F00000200FF0D1FB8B4A8B4B92F8924100E6F3
:10350000884C894F894E0C2100200FF0C5FB94F8A0
:1035100090513868294605F017FD326893796B4061
:103520009371B4F89A010FF013FCB4F896010FF000
:103530000FFCB4F898010FF00BFC94F89151386827
:10354000294605F001FD326893796B409371B4F818
:103550009E010FF0FDFBB4F8A0010FF0F9FB012074
:10356000FEF7CDBF002001210FF096FB6D4A6E4B98
:1035700054791868F5E66B4C072100200FF08CFB9E
:10358000B4F880010FF0E4FBB4F882010FF0E0FB27
:1035900094F88451644B2946186805F0D5FC634BB8
:1035A0001A6893796B409371B4F886010FF0D0FBE1
:1035B0000120FEF7A4BF5B4C062100200FF06CFB3E
:1035C000B4F858010FF0C4FBB4F85A010FF0C0FB77
:1035D000B4F85C010FF0BCFB0120FEF790BF0421A2
:1035E00000200FF059FB4F4B9C68FFF763B8502148
:1035F00000200FF051FB4C4D4C4CDFF824814C4F18
:103600004FF0000AD8F85860286806EB8A060AF1DD
:10361000010A96F8813003EB430307EB830393F829
:103620003890494605F090FC22682868937989EA29
:103630000303937196F88290494605F085FC226851
:103640002868937989EA0303937196F88390494631
:1036500005F07AFC22682868937989EA030393715C
:1036600096F88460314605F06FFC22689379BAF1D0
:10367000140F83EA06039371C4D1FEF73FBF1A21EA
:1036800000202C4F284D294C0FF006FB07F10B08AA
:1036900017F8016B2868314605F056FC22689379CB
:1036A000B84583EA06039371F2D1234F07F1080866
:1036B00017F8016F2868314605F046FC22689379B7
:1036C000B84583EA06039371F2D11C4F07F107084E
:1036D00017F8016F2868314605F036FC22689379A7
:1036E000B84583EA06039371F2D1FEF707BF0621BE
:1036F0000020134F0C4D0D4C0FF0CEFA07F10408CB
:1037000017F8016B2868314605F01EFC2268937992
:10371000B84583EA06039371F2D1FFF765BB00BF9A
:10372000841A0020983F0020903F0020943F002002
:103730008096010884B501088FB501084BC40108C3
:103740007CB50108A0470020CB4DCC4C03210020C4
:103750000FF0A2FA2868102105F0F6FB226828680D
:10376000937983F010039371052105F0EDFB226836
:103770002868937983F005039371072105F0E4FB32
:103780002268937983F0070393710120FEF7B7BE97
:1037900004210020BA4FB84DB84C0FF07DFA07F164
:1037A000040817F8016B2868314605F0CDFB226844
:1037B0009379B84583EA06039371F2D1FEF79EBE72
:1037C000AD4CAE4D032100200FF066FA20680021B9
:1037D00005F0BAFB2068012105F0B6FB2A682068D5
:1037E000937983F0010393710E2105F0ADFB2A68F4
:1037F000937983F00E0393710120FEF780BE0020C1
:10380000FEF77DBE019B0344019398F811309C4262
:10381000FFF6C4A8009B002B3EF470AE9DF8041088
:1038200000200FF039FA00230093FFF7B0B8D4B2AC
:103830002146386805F088FB33689A7962409A71AE
:10384000B5F8FA010FF084FA95F8FC413868214682
:1038500005F07AFB3268386893796340937195F884
:10386000FD41214605F070FB32683868937963406A
:10387000937195F8FF41214605F066FB3268386880
:1038800093796340937195F8FE41214605F05CFB06
:103890003268937963409371D0E5774D774C9FED13
:1038A000799ADFED798A0026C14603EB860393ED12
:1038B000080AB2EE048A20EE080A13F0CDF980F36C
:1038C0000800C7B23946286805F03EFB2168D8F8E1
:1038D00058308A79574003EB86038F7193ED0B0ABA
:1038E00020EE090A13F0B8F980F30800C7B2394690
:1038F000286805F029FB2168D8F858308A795740A4
:1039000003EB86038F7193ED0E0A20EE280A13F065
:10391000A3F980F30800C7B23946286805F014FB04
:103920002268937901365F40032E977140F08280C0
:10393000072E4FF00409D8F858302DD033442868AA
:103940005F78394605F000FB2168D8F858308A794D
:1039500028687A4033448A71DF7A394605F0F4FAF0
:103960002168D8F858308A7928687A4033448A71B7
:103970005F7D394605F0E8FA22689379B9F10A0FBC
:1039800083EA070393713EF4B9AD0136072E09F1BE
:103990000109D8F85830D1D193ED110A20EE080A68
:1039A00013F05AF980F30800C7B23946286805F0C9
:1039B000CBFA2168D8F858308A7957408F7193ED47
:1039C000120A20EE080A13F047F980F30800C7B284
:1039D0003946286805F0B8FA2168D8F858308A794D
:1039E00057408F7193F84C3000EE103AB8EE400A11
:1039F00013F032F980F30800C7B23946286805F0A1
:103A0000A3FA226893795F409771BEE7D6F88400E5
:103A100000F30F0080B20FF09BF90120FEF76FBD9D
:103A2000102F35D00025DFF864802E46A946AA461F
:103A3000FEF764BFD9F8583037E72046FFF758BB88
:103A400093ED110A20EE080A13F006F980B20FF088
:103A50007FF9D8F8583093ED120A20EE080A13F0D7
:103A6000FBF880B20FF074F9D8F8583093F84C0096
:103A70000FF06EF9FEF75CBE903F0020943F0020EF
:103A800074B501080000C84200007A44841A00207E
:103A9000DFF81880D8F8B050D8F8B4601FFA85FA6B
:103AA0001FFA86F92D0C360CFEF728BF841A002069
:103AB0002DE9F04FDFF83083B749D8F80020B74C34
:103AC0002DED028B02F59C430E7820338DB02360E0
:103AD000002E00F06E83B24BB24F1B68B24D9A427B
:103AE000B24B009388BF06F1FF36B14B88BF0E7012
:103AF0000493009BAD4E1868C30403D52B68D90707
:103B000040F1B8853968D8F800708B7A002B40F006
:103B1000698202044BD5D4F89420A04EBA1A002A28
:103B200045DB96F89820DFF8C4E291F80B809EF808
:103B300005C0DFF8BCE2013202F00F023EF81C10B3
:103B400086F8982006EB020C07F59C4E0EF1200E2D
:103B500089B2C6F894E091FBF8F206F19B018CF86B
:103B60009C20AB3611F8012F1344B1421BB2F9D19E
:103B7000002BB8BF0F3343F30F13002BC0F2C785E0
:103B8000642BA8BF642307EE903A9FED8A6ADFEDAD
:103B90008A6AF8EEE77A87EE867A67EE267AFCEE96
:103BA000E77ACDED017ABDF80430844A1380C6056A
:103BB0000AD5834BDFF82C929F4299F8022000F23D
:103BC0006D81002A40F06E817E4BDFF828820193E0
:103BD0007D4FB7F84E1107F5C47005F051F88146D6
:103BE000002840F02582D5F800A01AF0006B04D020
:103BF000764EB378002B00F08085019B1A7802F096
:103C0000040202F0FF03002A40F013816F4E704A55
:103C10007049126802F57A720020C4F8B4200122BB
:103C20000870F270B270002B40F0168298F800B065
:103C30005F4B97F8E2A197F8E3C1B7F898E1B7F8BE
:103C40009A0103F10801002633F9022BB6087245E8
:103C5000C4BF66F07F06F6B28242B8BF46F04006A7
:103C60009942F1D194F8BD204C4BB24200F08384CC
:103C7000002283F8BD6083F8BE20BBF1000F12D193
:103C80005A462B68D80740F19784002384F8BF3048
:103C9000B9F1000F04D1019B1B78D90700F1798697
:103CA000142A00F08384009B4B4E1B6803F004032E
:103CB000002B40F03484D6F800B000230BF18308C9
:103CC0000BF1D3092B60012603E008F10408C1457C
:103CD00017D098F8002098F801309A42F5D2414662
:103CE00018F8010C04F08EFF0028EED018F8022C12
:103CF0002B6806FA02F208F104081343C1452B6051
:103D0000E7D1364B1B78002B00F061832B689E07B0
:103D100078D4009B1B68D80570D4314EDFF8D8806A
:103D2000012009F05FFE2B685B0700F196800220FE
:103D300009F058FEB8F8001011F003011ABF012174
:103D4000084601200CF0E0FB33689A0600F1D281AE
:103D5000286810F4006F4FF4807061D009F052FEB3
:103D60007B79082B61D00E2B5FD0009B1B685B0515
:103D70000AD597F82032002B7DD02B681D037ED406
:103D80000DF09CF90EF00EFA012384F860310DB0AD
:103D9000BDEC028BBDE8F08FB8480020981B0020D6
:103DA000B4480020AC480020901A0020B048002001
:103DB000DC4700200000C84200C07F44041B0020F4
:103DC000404B4C00941A0020983F0020060400202D
:103DD000E4320020A4360020DC1A00206C350020DC
:103DE000881A0020BC48002070480020B42500201C
:103DF000C4250020500F00208C1A0020AE4BDB7829
:103E0000002B8AD0AD4E3368990787D5DFF8D8826A
:103E1000B8F80030DA078AD4012009F0F3FD86E70C
:103E200009F0E0FD7B79082B9DD1402009F0DAFDF7
:103E30009BE7009A1268D1063FF5E8AEBBF1000F90
:103E400004D09F4EB278002A7FF4E1AE0AF0205AE7
:103E5000BAF1205F7FF4DAAEE8E6012009F0C2FD96
:103E6000B8F8001088073FF567AF022009F0CAFDD7
:103E7000B8F8001060E7019B1B785E0780D5914B76
:103E800000221A700EF0EAF900283FF47DAF0EF020
:103E9000CDFE0EF0E3F90028F9D175E712B9012241
:103EA00089F80220884B99F8217093F800B02968AE
:103EB0000193012F14BF032300230BF0040B029383
:103EC00099F82020DFF82482804EDFF824A201F048
:103ED00080635FFA8BFB0393052A57D8DFE802F073
:103EE00047405E2F1803DAF800203368D288642137
:103EF00001FB02334FF48060002289F8202089F80A
:103F00000320C9F8103009F06DFD99F82020E3E78F
:103F1000012F40F0BA863368D9F818209A4235D27A
:103F200098F8003013B92B68D8072FD401990B7873
:103F3000052223F002030B7089F82020CCE7019AB8
:103F4000137843F0020313700FF0AEFDD9F81C2074
:103F5000336813440422C9F8183089F82020BBE7DD
:103F6000012F40F05883052289F82020B4E7BBF1E7
:103F7000000F40F09484039B4FF48060002B40F0CE
:103F8000588309F02FFD0022C9F81020029B002B56
:103F90003FF41EAE029804F0A9FE19E6012F04BFFB
:103FA000052389F82030BBF1000F00F03983D4F8E5
:103FB000B0300498B3F90E30038043808380DAF880
:103FC00000103268D9F814304988C1809A4200F252
:103FD0009183012F41F05480374B93F82020022326
:103FE000029379E7013B0A7B049931F913301AB146
:103FF000C3F53B6308331BB2A3F57A73B3F57A7F3D
:10400000A8BF4FF47A7323EAE37307EE903A9FED6B
:10401000306ADFED306A304AF8EEE77A87EE867A6A
:1040200067EE267AFCEEE77A17EE903A1380BEE54B
:10403000009B1B6813F0100F019B00F007831B7897
:1040400003F00403DBB2254A1D4E0021117000224B
:10405000F270002B3FF4EAAD009B1B68DE067FF593
:10406000E5AD1F4B1B7803F0100303F0FF06002B98
:104070007FF4DCAD98F800B0DFF870A0BBF1000F62
:1040800000F07D8697F8E431B9F1000F40F0108719
:1040900043B10E4AD4F8B8301268124E9B1A002B66
:1040A000C0F2E687102004F021FE012384F8BC3022
:1040B00098F800B0BCE500BFBC480020881A00207A
:1040C000060400209C470020941A0020E4320020BF
:1040D00000007A4400C07F44041B0020A436002066
:1040E000141B0020981B00208C1A0020500F002069
:1040F000EC480020BC4B1B789B0723D5BB4B1B789F
:10410000042B1FD92868BA4E10F4007940F02A8495
:10411000B8F80020DFF80C8302F010039BB2002BEC
:1041200040F015879A46410500F1D286920600F1CB
:10413000258794F80431002B00F01F84BAF1000F9A
:1041400010D105E6B8F8003003F03003002B3FF43F
:10415000FFAD102009F046FC202009F043FC0023AD
:1041600084F8FD30A349286800230022C4F81021F8
:104170000B80A4F80831A4F80C31C4F81431C4F849
:104180003C314B80A4F80A31A4F80E31C4F8283130
:10419000C4F85031C4F81821C4F83821C4F84021BB
:1041A000C4F82421C4F82C21C4F84C21C4F85421AB
:1041B000CFE5914FDFF870B2A1460EE03A68DBF828
:1041C0000030515D8D48DFF830A29847032D3CD870
:1041D000E8B904EB45050136A88094F82830F5B21B
:1041E00053B93A68854B927E1B78D11C9942BCBF6B
:1041F000131DDBB289F828309D4228D2072DDDD966
:10420000DBF800307D482946984700B2E1E7DAF84C
:10421000003005F1100203EB820E33F82210BEF8D5
:1042200002204FF47A73401A03FB00F0521A40F652
:10423000C90390FBF2F000F57A70984200F3FC811C
:1042400040F2EE239842B8BF184600B2C1E79A4642
:104250006B4B00936B4A1B681268039242F2010198
:104260001940002900F0EB81674E94F82A307278EB
:10427000327084F82930002B00F0E681624E3378EA
:1042800083F0010C94F82C2060485C4BD7F800B008
:1042900009971546A0FB05E0400800EB4000281AEE
:1042A000C0B2079003981A78594B069500F596709E
:1042B0000F25574684F82B509246564E04930025FE
:1042C0000590CDF804C002911A4697BB9BF81A706E
:1042D000F81C5045C0F2D5825046854284F828A08B
:1042E000574629DA019B002B00F0AA824A49BBF805
:1042F00016C031F915001FFA80FEF4454FEA450952
:1043000004D8BBF818C0F44580F06982434803998B
:1043100050F82500884240F2A08232F90900029B41
:10432000002B40F0648222F8090001350636002F88
:10433000CCD038468542D5DB94F82B302C4D0F2B52
:10434000BA46099F03D12B685A0140F1A78434492A
:104350002C4B8A6818684B682B4EC860821A9A42A8
:1043600084BF002381F82130244BDFF8C0900195F1
:104370000120707030701E783B685246B246164677
:104380004D464FF0000B9946AEB999F81A30D91C3A
:104390005145C0F27C8253469B4584F828A056467E
:1043A0005FFA8BF00CDA0FF0B1FA0BF1010B25F884
:1043B000020F002EE9D033469B455FFA8BF0F2DB0B
:1043C000019D069B013384F82C30FFF792BB0BF163
:1043D000D206DFF85C90DFF85C8002930BF58D7BF2
:1043E0004FF0010A2BE000BF141B0020151B00201A
:1043F000901A002088360020AC480020F4460020A7
:10440000B0480020E432002006040020ABAAAAAA8B
:10441000DC470020C81B00209C1B0020FC1C002047
:10442000BC4800208C1A0020540F0020DA470020DE
:1044300058980108981B002006365E452CD032782B
:1044400073789A42F8D2314616F8010C04F0DAFB80
:104450000028F1D03079B37896F803E000EB400102
:1044600004EB8101013BD1F8D02003EB43034B4423
:104470009342E1D098F8FC20C1F8D0300AFA00F05D
:10448000063622EA0000029B81F8CCE05E45C1F8C6
:10449000D43088F8FC00D2D1C34BC44AD3F800A072
:1044A000126894F829B0C24EDFEDC28A9FEDC28A2D
:1044B00002924FF00008716841B30B7833B3B268D1
:1044C000C2EB0A02002A0BDB94F8FC00012202FA7C
:1044D00008F220EA02020AF5FA7084F8FC20B060C3
:1044E000BBF1000F12D0327848780432D2B20028E3
:1044F00000F0E380012800F0858494F8FC9001230B
:1045000003FA08F343EA090284F8FC2008F10108E1
:10451000B8F1040F06F10C06CDD1FFF7F7BB94F804
:10452000C430A649A3B1019B1B785A0710D5049B40
:10453000B3F90620B7F898319A4209DD2B6813F0D9
:10454000010006D1322281F8C400A1F8C82000E0A1
:104550002B68DB0340F1938094F8CA20974B2AB96B
:1045600093F8C22012B93222A3F8C820012384F89C
:10457000CA30FFF7A0BB93F8BE20F92A00F295805D
:104580000132D2B283F8BE2083F8BD60BBF1000FC8
:104590003FF477AB142A7FF486AB5F2E00F0A8833C
:1045A000BAF1000F02D07D2E00F01F82019B1B7814
:1045B00059073FF578AB07E0019B1B785B0700F1DB
:1045C000A980142A7FF46FAB572E00F07583009BEF
:1045D000DFF800921B6813F0040300F0BB805A2E32
:1045E00040F0B88094F8C210744A002940F0EB847F
:1045F00092F8C43083F0010382F8C430002B40F0FD
:10460000D8840D2004F072FBD9F800306C4E03F012
:104610000403FFF74DBB0FF0F7FA99F820205BE495
:10462000336847F230530322C9F81C3089F8202040
:1046300052E409F0E7F9A6E440F6CA00C9E594F8A7
:104640002930002B7FF41AAE9C461BE61A7802F044
:10465000040202F0FF03002A3FF4F5AC2A681201BD
:104660007FF5F1AC574EB278002A40F00E845649DF
:104670000A70ECE40FF018FA3068FFF743BA94F8C8
:10468000C2304E4A002B3FF416AB019B1B7803F05F
:10469000040303F0FF01002B7FF40DAB012382F82C
:1046A000C21082F8C330FFF706BB83F8BD60BBF1D0
:1046B000000F3FF4E6AAFFF7F6BA0498B7F896C1E0
:1046C00030F912200CF1C80E724540F3088194F8BD
:1046D000FC9049FA08F0C0073FF518AF8978002927
:1046E00000F00A8102200591039304F047FB039B2D
:1046F000059908E10223029393E70DF0EFFD324B99
:1047000001280CBF187083F80090FFF776BA0023D9
:10471000FFF74BBA94F829302849002B3FF4C3AA7D
:104720002A4BDB78002B7FF4BEAA91F8BF3001330F
:10473000DBB2032B81F8BF307FF6B5AABCF1000FC6
:1047400003D1B9F1000F7FF4AEAA02920FF0ACF9D9
:10475000029A22E15D2E00F00F835B2E00F0338180
:104760005E2E00F08983562E00F0DD8298F800302E
:1047700043B16F2E00F00C84BAF1000F02D07E2EF0
:1047800000F00684972E00F0EE83A72E40F0CD8235
:104790000F49009B0A781B6842F004020A7003F07C
:1047A0000403074EFFF784BAE4320020101B0020F8
:1047B000641C002000007A440000C842981B0020BE
:1047C000DC1A002006040020A4360020BC4800208B
:1047D000141B0020B048002001984FEA4509BD494C
:1047E000059B41F82530029B002B3FF49CAD079BB5
:1047F00094F878C009EB050E9E4404EB4E0EAEF81B
:104800003000BCF1000F08D1069B022B7FF68BAD68
:10481000B14B4FF0010183F87810B6F802E0308810
:10482000B6F804C0AD4B70441CFA80F000B283FBB4
:10483000003EAB4B23F80900AEEBE07000B272E52E
:10484000BBF816000028C7D0A248039950F82500ED
:1048500088424FEA45093FF660ADE8B208920FF092
:1048600055F8032D089A18DC9B4B93F82BE0012395
:1048700003FA05FC984B2EEA0C0E00B283F82BE0ED
:104880004DE50437FFB284F82870384652E51E1D06
:10489000F6B284F8286033468EE500B23FE5B4F8FE
:1048A000AC10D4F8B00004F0EBF9012800F08D82D0
:1048B000039B2BB1DAF800301B79002B40F0748297
:1048C000012F3FF463AB3368D9F810209A42C0F04F
:1048D0001F82844B012283F82020FFF7FDBAACF140
:1048E000C800824262DA94F8FC90897849FA08F0AC
:1048F000C2073FF50BAE494201200591039304F036
:104900003DFA0599039B581E13283FF6F8AD01A206
:1049100052F820F0574B00083F4B00086F4B00083F
:104920000F4A0008314B0008F14A00088D4B00087F
:10493000954A0008774A0008594A00083B4A00088F
:10494000FF4400080F4A0008274A0008F14A0008FF
:104950008D4B0008954A00084B4C00080D4C000890
:10496000CD4B0008B8F80030DE0640F1E28294F842
:104970000431002B7FF4EDA99A460E2004F0B6F91D
:10498000012384F80431BAF1000F7FF4EBABFFF799
:10499000DFB902920FF02AF8029A142A7FF483A951
:1049A00098F80030002B3FF401AEF6E594F8FC30A7
:1049B000012202FA08F223EA02030AF5FA7284F8E5
:1049C000FC30B260A2E50123022687F8103709F017
:1049D00059F809F025F9304604F0D0F9009B424E11
:1049E0001B6803F00403FFF763B9019B1B7803F016
:1049F000040303F0FF09002B00F041820FF054F88C
:104A0000019B1B785A077FF5B1AEFFF74CB9029AAC
:104A1000507908446428A8BF642020EAE0700D2B78
:104A200050713FF46CAD029A137919446429A8BF00
:104A3000642121EAE171117161E52C4B1B68187842
:104A4000022800F06483D87D0144C829A8BFC8218A
:104A500021EAE171D97552E5244B1B6818780228C8
:104A600000F06F83587B0144C829A8BFC82121EA00
:104A7000E171597343E51D4B1B681878022800F05B
:104A80002683D8780144C829A8BFC82121EAE1714A
:104A9000D97034E51548006890F800E0BEF1020FC7
:104AA00000F0F88290F816E08E44BEF1C80FA8BF5F
:104AB0004FF0C80E2EEAEE7E112B80F816E03FF480
:104AC0001EAD437D1944C829A8BFC82121EAE17160
:104AD000417514E5FC1C0020981B002056555555C7
:104AE000141C0020BC480020DC1A0020E0460020F6
:104AF000BB48006890F800E0BEF1020F00F075823C
:104B000090F802E08E44BEF1C80FA8BF4FF0C80E67
:104B10002EEAEE7E0F2B80F802E03FF4F0AC4378F3
:104B20001944C829A8BFC82121EAE1714170E6E40F
:104B3000029A9379194481F308019171DFE4029894
:104B4000437819446429A8BF642121EAE1714170C6
:104B500004F03AF8D3E4029803781944FA29A8BF7C
:104B6000FA2121EAE171017004F02EF8C7E4029AFB
:104B70009C4BD07801446429A8BF642121EAE171EB
:104B8000D1701046196803F0C5FFB8E49448006876
:104B900090F800E0BEF1020F00F0448290F80CE0C3
:104BA0008E44BEF1C80FA8BF4FF0C80E2EEAEE7EAD
:104BB000102B80F80CE03FF4A2ACC37A1944C8294A
:104BC000A8BFC82121EAE171C17298E4844B18683A
:104BD0000378022B7FF475AF07EE901AF8EEE77AB0
:104BE00087EEA87AD0ED0E7A77EE277AF5EEC07AC6
:104BF000F1EE10FA00F14882F4EE487AF1EE10FA84
:104C0000C8BFF0EE487AC0ED0E7A78E4744B1868AD
:104C10000378022BD1D107EE901AF8EEE77A87EEEF
:104C2000887AD0ED0B7A77EE277AF5EEC07AF1EE3E
:104C300010FA00F12C82F4EE487AF1EE10FAC8BFB7
:104C4000F0EE487AC0ED0B7A59E4654B18680378AA
:104C5000022B7FF464AF07EE901AF8EEE77A87EE46
:104C6000887AD0ED087A77EE277AF5EEC07AF1EE01
:104C700010FA00F1F481F4EE487AF1EE10FAC8BFB0
:104C8000F0EE487AC0ED087A39E4574AD9F81C109A
:104C900012680A44C9F81820FFF778B9534A524BF2
:104CA000D1681B6893605B1AC82B7FF68AAB01231F
:104CB00082F82130FFF785BB009B4D4E1B684FF4F7
:104CC0007A721806A4F8C0207FF569AD494A1278B7
:104CD00091077FF564AD484A1278042A7FF65FADEC
:104CE00006F0B6FE3368454E03F00403FEF7E0BF5E
:104CF000019B1B7803F0040303F0FF09002B5ED037
:104D00000EF0D2FE019B1B785B073EF5CCAF5EE454
:104D10000EF07AFF3549032240F6B83381F820209F
:104D2000CB61FFF7D9B809F009F90023BB2E0B932B
:104D300000F02B81B72E00F03481BE2E00F03781B9
:104D4000BD2E7EF4B0AF4FF6FE712C4E3268B2F835
:104D500060E0B2F8620071440344A2F86230A2F845
:104D6000601009F0EBF8009B1B68002203F00403BD
:104D700084F8BE20FEF79CBF0023012625E6B9F18A
:104D8000000F3FF48FA994F8BCB01D4BBBF1000F8E
:104D90003EF44EAF029303F093FF029B9AF800B0EB
:104DA00083F8BC60FEF744BF0EF02EFF03224FF4E1
:104DB0007A7389F82020C9F81C30FFF78DB80B20D2
:104DC00003F094FF84F8BE909CE7DAF80020336883
:104DD000D288642101FB0233C9F8103068E500BFB6
:104DE000E0460020DC460020E4320020BC480020E1
:104DF000B0480020141B0020151B0020DC1A0020E6
:104E0000981B0020049830F91200B0F5617FC0F2C1
:104E1000CC8040F633028242A8BF0246A2F56172FE
:104E20000C2B7FF46AABD74B897818784FF49663D4
:104E300093FBF1F392FBF3F35FFA83F948453FF4F8
:104E40005CABB9F1030F8ABF02224A461146C2EB9E
:104E5000C20207EB4202CC4B02F212721A60C94B3B
:104E600098BF4946197008F0B1FE09F10100C0B2BF
:104E700003F084FFFFF741BB02230326A5E50B20C7
:104E800003F034FF84F8BE90BAE5C049D4F8B420EA
:104E900009688A42BFF4DBA802930DF01FFA029B57
:104EA00000287FF4D4A8BA4AB0701070FFF7CFB8CA
:104EB000002B40F0918094F8BC30B64E002B3EF4AD
:104EC000B7AE03F0FDFE002386F8BC30FEF7AEBEA1
:104ED000B148D4F80011B0F900304989AD4E002B2B
:104EE000B8BF5B428B42BFF621A9B0F90230002B5C
:104EF000B8BF5B4299427FF719A990063FF519A9FF
:104F0000202008F07FFDA54AA548114603684068A7
:104F100041F8040F104613600AF074FA012386F872
:104F2000FD3094F80431002B7FF41CA94FF0010AE6
:104F300023E5102008F066FD202008F053FD994974
:104F4000081F0AF05FFA022384F8FD30E9E7102019
:104F500008F048FD4FF0010A84F8FD903068B8F879
:104F60000020FFF7E0B8009B8F4E1B684FF4C8721B
:104F700003F00403A4F8C620FEF79ABE202008F030
:104F800031FD002384F8FD30CBE719460223DCE62F
:104F90000EF02CFD009B844E1B6803F00403FEF70B
:104FA00087BE19464FF6FE73CFE6002238E702218E
:104FB000CBE60C2003F09AFED9F800307A4E03F0CD
:104FC0000403FEF775BE0020012182F8C20082F8BA
:104FD000C310754EFEF76CBE6C4A12684FF47A71BE
:104FE00001FB0323C4F8B83065E707EE901AF8EE2A
:104FF000E77AD0ED096A87EE887A77EE267AF5EEC1
:10500000C07AF1EE10FA2DD4F4EE487AF1EE10FAEF
:10501000C8BFF0EE487A0F2BC0ED097A7FF421AEBD
:10502000FFF76DBA07EE901AF8EEE77AD0ED0C6A4A
:1050300087EE887A77EE267AF5EEC07AF1EE10FAEE
:1050400013D4F4EE487AF1EE10FAC8BFF0EE487AC5
:10505000102BC0ED0C7A7FF4E4ADFFF750BADFED12
:10506000537A0FE6DFED517AD5E7DFED507AEFE7BF
:105070000EF01AFD86F8BC909AF800B0FEF7D8BD85
:1050800002230293FEF786BFDFED487ABBE5DFED32
:10509000477AD7E507EE901AF8EEE77AD0ED0F6A77
:1050A00087EEA87A77EE267AF5EEC07AF1EE10FA5E
:1050B00027D4F4EE487AF1EE10FAC8BFF0EE487A41
:1050C000112BC0ED0F7A7FF48DADFFF718BA07EE04
:1050D000901AF8EEE77A93ED0A7AC7EE886A76EED0
:1050E000877AF5EEC07AF1EE10FA0DD4F4EE487A34
:1050F000F1EE10FAC8BFF0EE487AC3ED0A7AFFF776
:10510000FEB9DFED2A7ADBE7DFED287AF5E707EE77
:10511000901AF8EEE77A93ED107AC7EEA86A76EE69
:10512000877AF5EEC07AF1EE10FA24D4F4EE487ADC
:10513000F1EE10FAC8BFF0EE487AC3ED107AFFF72F
:10514000DEB907EE901AF8EEE77A93ED0D7AC7EE26
:10515000886A76EE877AF5EEC07AF1EE10FA0DD411
:10516000F4EE487AF1EE10FAC8BFF0EE487AC3EDDB
:105170000D7AFFF7C4B9DFED0D7ADEE7DFED0B7ACC
:10518000F5E700BF38480020101B0020E432002063
:10519000A4360020981B00207C360020341B002001
:1051A000181B0020301B0020DC1A0020000000002B
:1051B0002DE9F04FA84B1D788DB075B9DFF8DC8272
:1051C00098F84A30012B00F017810135022D08F1C3
:1051D0004C08F5D10DB0BDE8F08FA04E3068002826
:1051E000F8D09F4DDFF8808203F0AAFE0028F1D0AE
:1051F000306803F0A1FE09281ED03F281CD02B6880
:10520000002B75D1042800F0D3810C2800F0BD805C
:105210007F280FD0A0F12002D2B25E2A0AD80BB9A3
:10522000202807D05A1C08F80300014630682A607D
:1052300003F08AFE3068D7E78A4F2C684FF0000AE7
:1052400007F5D07BD1462CB122463968864814F048
:105250001DF918B9BA46B9F1000F47D010375F45AC
:10526000F1D1B9F1000F00F08880D9F80000DAF828
:105270000010025D0B5D9A422044214440F07F8182
:10528000671E474422460BB92D2A3ED907F8013F35
:1052900001322A6010F8013F11F801EF9E45F2D06B
:1052A0000AB1D14512D071480DF080FED14509D820
:1052B00059F8100B0DF07AFE0921306803F044FE16
:1052C000D145F5D96A480DF071FE00242B68A34240
:1052D000B0D9671E474417F8011F306803F034FE49
:1052E0002B6801349C42F6D330687DE7B946B5E7B8
:1052F0000C284AD00A2810D00D280ED07F2800F0A4
:105300001F812F2B86D930686EE7511C202008F8AA
:105310000200296008F80130C3E7534C55480DF0EE
:1053200045FE2046232114F09AF8002800F03E8123
:10533000021B2A6092B1531E18F80310202940F076
:105340005E8203EB080243B112F8011D202903F12C
:10535000FF3022D10346002BF6D12B6030220021F2
:10536000414814F046F83C4B1B78002B3FF432AF19
:105370003F480DF01BFE306836E714B1BAF1000F5C
:10538000A4D03A480DF012FE92E73B480DF00EFE15
:1053900037480DF00BFE306826E72B60374A314C5A
:1053A0001268DFF8FCB00092002208F803202346C0
:1053B00004F5C87908275C469B4605E05BF8104F6A
:1053C00020460EF049FC0746DFF89CA021465046D7
:1053D0003A4614F05BF838B918F80720009B1A44D5
:1053E0005278520700F0D780CB45E7D124480DF022
:1053F000DDFD00232B60B1E7224F234ED8F80000DB
:10540000224CC7F80080BA463060B14603F098FDE0
:10541000002873D0306803F08FFD3B6893F8482074
:105420000146002A3ED1242800F085802378D9F84F
:1054300000005B07EAD4232900F0BE80144B1B68F0
:105440001B788B42E2D10AF007F9124B124A1A601C
:1054500072B60AF019FA00BF6C35002034480020FB
:1054600068350020049A010838350020F0B601089C
:10547000F8B6010854D1010800B701083411002022
:105480000CB70108943F0020903F0020941A0020A0
:1054900098470020FCFF0120EFBEADDEFC46002057
:1054A000E4B60108012A3ED0022A54D0032A5AD079
:1054B000042A66D0052A10D0062A1AD193F849008A
:1054C000FCF706FF002800F0AB80494C0DF0CEFB46
:1054D0003B68002283F8482011E01A7958799042FD
:1054E00000F27F819A798A4200F08581002283F858
:1054F0004820306803F024FD00288BD13C4C2378F1
:10550000002B3FF462AE4C2303FB05F5394B585991
:105510000DF03EFB09F0B0FC322003F0C3FC08F0B4
:105520007FFA0AF0C1F94D280CBF0222002283F84D
:1055300048203068DEE7012283F848203068D9E748
:10554000013B2D492D480B60002208F803200DF087
:105550002DFD306848E63C280CBF0322002283F86A
:1055600048203068C6E740284FF000020FD80421D9
:10557000587198711A71DA7183F84810B9E72246A8
:105580008EE69A7983F8490051409971052283F893
:1055900048203068AEE75C46DFF880B05C45BFF479
:1055A00025AF781C5044E368984722E72A68C1E693
:1055B000134807F0C3F90DE6124A134B1060134A63
:1055C00018600123124813700DF0F0FC11480DF023
:1055D000EDFC2378104A43F002031268237013781D
:1055E000232B3FF430AFDAF8003093F8482063E71C
:1055F000441D0020FC4600206835002028B7010823
:1056000038350020EC460020344800206C3500205E
:105610002CB70108F8B6010898470020A49B0108A0
:105620003B6893F84920233AD72A00F2EA80DFE862
:1056300012F06F09E8006409E8003909E800080978
:10564000E800FE08E800A908E800E800E800E80033
:10565000E8008C08E8004E08E800EC07E800C20704
:10566000E800E800B007E8009E07E800E8009107BE
:10567000E80039071607E800E800E800E800E8005D
:10568000DC03E8009006E800B906E800E800E8005E
:10569000E800E800E800E800E800E800E800E800CA
:1056A000E800E800E800E800E800E800E800E800BA
:1056B000E800E800E800E800E800E800E800E800AA
:1056C000E800E800E800E800E800E800E800E8009A
:1056D000E800E800E800E800E800E800E800E8008A
:1056E000E800E800E800E800E800E800E800E8007A
:1056F000E800E800E800E800E800E800E800E8006A
:10570000E800E800E800E800E800E800E800E80059
:10571000E800E800E800E800E800E800E800E80049
:10572000E800E800E800E800E800E800E800E80039
:10573000E800E800E800E800E800E800E800E80029
:10574000E800E800E800E800E800E800E800E80019
:10575000E800E800E800E800E800E800E800E80009
:10576000E800E800E800E800E800E800E800E800F9
:10577000E800E800E800E800E800E8005906BD0598
:105780008605E8000305F804EC0425040004C303BF
:10579000AF03AA034803E8003003E800AE02E800C4
:1057A000E800E800E800E800E800E800E800E800B9
:1057B000E800E800E800E800E800E800E800E800A9
:1057C000E800E800E800E800E8009002E800E800EF
:1057D000AF01ED00E800E800E800E800E800E800BC
:1057E0002503987903EB020E4840013298711A7133
:1057F0008EF808107DE6062283F848205EE6134600
:10580000CCE5002101200DF047FA5EE6DA79C44CC0
:10581000511C1A44D97192F80890B9F1FF0F00F0A9
:1058200001816378994580F0F880002108460DF0E9
:1058300033FA0DF01BFA3B6818680DF0A9F93068CF
:105840000DF0F4F903F03CFA72B6B64AB549B54822
:1058500080234FF0400A03AE53834FF0010BA1F8B1
:105860001AA004223146ADF80C308DF80E204FEA14
:10587000C9098DF80FB00AF05DFE3146A948ADF8B0
:105880000CA08DF80EB08DF80FB00AF053FE04EBAB
:1058900009031A89586802FA0BF1D0F800E00BFAF4
:1058A00001FC0BFA02F39BB24CEA0E0EC0F800E0CA
:1058B00003839C4BA3F818A09A4B1B691B06FBD4CF
:1058C0004FF0010AD0F800E00AFA01F10AFA02F3F7
:1058D0009BB241EA0E0202604383924B4FF0400EAE
:1058E00000210846A3F81AE00AF00EFE012108463E
:1058F00042F20F7B0AF008FE594602E0002940F010
:105900000681884B874A1B691806F7D504EB090303
:105910008B461989586801920AFA01F189B201830C
:105920005989ADF80C104FF0040E314600938DF8F4
:105930000EE08DF80FA00AF0FDFD002101200AF015
:10594000E3FD019ABBF1000F00F0F280009B9B4643
:10595000744B1B691B0615D5DBF80420BBF8083017
:1059600010690AFA03F318404FF0400300F0D180A9
:105970006C4A0021138308460AF0C6FD694B1B6977
:105980001B06E9D404EB09031A895868510099E70A
:10599000D879421CD2B21918DA71097A0F293BD88A
:1059A000614E5F4C02301A44C1EBC101D8713144E1
:1059B000127A81F8D020DA79501C1A44D871127A00
:1059C00081F8D120DA79501C1A44D871127A81F802
:1059D000D220DA79501C1A44D871127A81F8D32077
:1059E000DA79501C1A44D871127A81F8D420DA7905
:1059F000501C1A44D871127A81F8D520DA79501CDB
:105A00001A44D871137A81F8D63009F075FA00215A
:105A100008460DF041F959E5414C002101200DF0F7
:105A20003BF9F4E74FF000096022201D494684F855
:105A3000019013F0DEFC8DF80B909DF80B3094F87C
:105A400066209A4253D9A1464FF0010A9DF80B30C7
:105A500004EBC30393F86930DA073CD59DF80B30AB
:105A6000324A09EBC30393F8683032F91330002B44
:105A700031DD9DF80B209DF80B3099F801B009EB52
:105A8000C20209EBC303D26EDB6E50681A894FEA7B
:105A9000CB0109EB010E0023CEF80400AEF80A207A
:105AA0000AFA03FE1EEA020E40F0E6800133102BD4
:105AB000F6D1734621444FF0040E0B810BF1010B1C
:105AC00003A9ADF80C208DF80FA08DF80EE00AF0B8
:105AD00031FD84F801B09DF80B3094F86620013355
